:100000000C9471000C94D0150C94A9150C949900C3
:100010000C9499000C9499000C9499000C949900FC
:100020000C9499000C9499000C9499000C94D7109E
:100030000C9499000C9499000C9499000C949900DC
:100040000C945F150C9499000C9452140C942C147D
:100050000C9499000C9499000C9499000C949900BC
:100060000C9499000C94990072756E2D62726964FB
:1000700067650A000A000A0000000000230026004D
:10008000290072740492740448940478C40C00002B
:100090000000240027002A0000000000250028009E
:1000A0002B000404040404040404020202020202F9
:1000B000030303030303010204081020408001022C
:1000C00004081020010204081020000000080002AB
:1000D0000100000304070000000000000000761685
:1000E0005A1611241FBECFEFD8E0DEBFCDBF13E0FC
:1000F000A0E0B1E0ECE7FBE302C005900D92A03474
:10010000B107D9F725E0A0E4B3E001C01D92AE3AF3
:10011000B207E1F710E0C0E7D0E004C02197FE018C
:100120000E949F1BCF36D107C9F70E9451170C942C
:10013000B11D0C940000089580914203882361F062
:100140009FB7F8942091420380914103213019F424
:100150008DBB9FBF08958FBF0895FC0120859185B9
:1001600080914203882379F08FB7F894309142034D
:10017000313039F43DB3309341033DB33DBB8FBFC4
:1001800002C0809341032CBD9DBD08959FB7F89494
:1001900080914003882319F081508093400380911F
:1001A0004003811105C08CB58F7B8CBD109242033A
:1001B0009FBF08958CB58F778CBD08958CB58068EE
:1001C0008CBD08956EBD00000DB407FEFDCF8EB549
:1001D0000895FC01738362830895FC01778366832D
:1001E0000895FC0175836483089508950895089522
:1001F00008950895FC01848995890895FC018289F8
:1002000093890895FC0180899189089580E008957B
:10021000FC0181850895FC0180850895FC0187819A
:100220000895FC0186810895FC0140959585492338
:10023000642B65870895FC0164870895FC0163873A
:100240000895FC0162870895FC0164830895FC0110
:100250006583089580E00895FC0122813381233075
:100260003105D1F381E00895CF93DF93EC01E8816C
:10027000F9810280F381E02DCE0109958823B9F33D
:10028000DF91CF91089581E0089508950895CF9367
:10029000DF931F92CDB7DEB76983DC01ED91FC914E
:1002A0000280F381E02D41E050E0BE016F5F7F4F9F
:1002B00009950F90DF91CF910895CF93DF93EC01D3
:1002C000898D9A8DDC01ED91FC910680F781E02DFE
:1002D000099561E08B8D0E94DD1461E08B8D0E9499
:1002E000AD1464E670E080E090E00E94191581E0B2
:1002F000DF91CF9108950F931F93CF93FC018281DB
:1003000093818430910569F08330910579F08230D2
:10031000910589F00197A1F040E452E46FE070E0AC
:1003200013C040E054E264EF70E00EC040E052E1E0
:100330006AE770E009C040E059E06DE370E004C096
:1003400040E854E86EE170E0A481B5818681978130
:10035000009741F08130910539F08230910531F0FC
:10036000039731F090E005C094E003C098E001C02D
:100370009CE080E000E012E12AE730E040175107FE
:100380006207730740F436952795179507958F5F99
:100390008630A1F787E021E02827119711F080E54A
:1003A00001C080E7322F3695932B982B90872170D0
:1003B0002187CFB7F89480914003811127C0ECEAE0
:1003C000F0E08491E0ECF0E09491E82FF0E0EE0FA3
:1003D000FF1FE257FF4FA591B491EC91E92321F45F
:1003E00061E08AE00E94AD1461E08AE00E94DD14C1
:1003F0008CB580618CBD8CB580648CBD61E08DE076
:100400000E94DD1461E08BE00E94DD1480914003C6
:100410008F5F80934003CFBFCF911F910F910895BD
:100420008F929F92AF92BF92CF92DF92EF92FF9204
:10043000CF93DF93EC016B010E9453154B015C01DC
:10044000E12CF12C0E945315DC01CB01881999098C
:10045000AA09BB098C159D05AE05BF0530F48A813C
:100460009B81039779F381E001C080E0DF91CF9118
:10047000FF90EF90DF90CF90BF90AF909F908F90C4
:1004800008958F929F92AF92BF92CF92DF92EF9298
:10049000FF92CF93DF93EC016B010E9453154B0148
:1004A0005C01E12CF12C0E945315DC01CB01881971
:1004B0009909AA09BB098C159D05AE05BF0550F425
:1004C000E881F9810280F381E02DCE01099588232E
:1004D00051F301C080E0DF91CF91FF90EF90DF906A
:1004E000CF90BF90AF909F908F9008958F929F92E2
:1004F000AF92BF92CF92DF92EF92FF92CF93DF93B2
:10050000FC012789308D232B11F481E038C0EC01E8
:100510000E9453156B017C0189E0882E912CA12C3F
:10052000B12CE881F9810488F589E02DCE01099587
:10053000882359F30E945315AB01BC014C195D0986
:100540006E097F098F89988DA0E0B0E08417950728
:10055000A607B70798F00E94FE18A50194010E9413
:10056000371A9B01AC012F5F3F4F4F4F5F4FA4E6FF
:10057000B0E00E94561A0E941915D3CF80E0DF9197
:10058000CF91FF90EF90DF90CF90BF90AF909F9072
:100590008F900895CF93DF9300D01F92CDB7DEB731
:1005A00029E42983FC0126852A836B8343E050E0FC
:1005B000BE016F5F7F4F848595850E94FD0881E0B5
:1005C00090E00F900F900F90DF91CF910895CF930F
:1005D000DF93FC01228921110BC0EC01438950E01B
:1005E00065897689848595850E94FD0881E08B8BDD
:1005F000DF91CF910895CF93DF9300D0CDB7DEB7D1
:10060000DC0152968C915297882379F080E589839A
:100610006A8342E050E0BE016F5F7F4F1C968D9170
:100620009C911D970E94FD081FC05596ED91FC916D
:10063000569753968C91539791E0980F53969C93AD
:100640005397E80FF11D608353969C9153975496EE
:100650008C915497981308C0ED91FC9111970680E6
:10066000F781E02DCD01099581E090E00F900F908A
:10067000DF91CF910895EF92FF920F931F93CF9345
:10068000DF9300D01F92CDB7DEB7FC012485211186
:1006900028C07C01158687E489838FE38B83E75A22
:1006A000FF4F80818A839701205F3F4F399700E495
:1006B00010E043E050E0BE016F5F7F4F8081918189
:1006C0000E94E8089C01215031092E3F3F4F18F04D
:1006D000F701148606C0F70195859F5F95878150C5
:1006E00084870F900F900F90DF91CF911F910F9102
:1006F000FF90EF900895CF93DF93EC010E943B03AE
:100700008C8590E0DF91CF910895CF93DF93EC013A
:100710000E943B038C85882331F08D85C80FD11D45
:10072000888990E002C08FEF9FEFDF91CF9108950D
:10073000CF93DF93EC010E943B038C85882359F013
:1007400081508C878D8591E0980F9D87C80FD11DB2
:10075000888990E002C08FEF9FEFDF91CF910895DD
:10076000EF92FF920F931F93CF93DF9300D0CDB7FB
:10077000DEB7FC012685211115C07C01178680E7B4
:10078000898380E28A832089318900E210E042E097
:1007900050E0BE016F5F7F4F848595850E94E80819
:1007A000F70186870F900F90DF91CF911F910F91E6
:1007B000FF90EF900895CF93DF93EC010E94B00378
:1007C0008E85882341F08F85E889F989E80FF11D2E
:1007D000808190E002C08FEF9FEFDF91CF9108956D
:1007E000CF93DF93EC010E94B0038E85882369F0DC
:1007F00081508E87E889F9898F8591E0980F9F87CE
:10080000E80FF11D808190E002C08FEF9FEFDF9134
:10081000CF910895CF93DF93EC010E94B0038E85B2
:1008200090E0DF91CF910895AF92BF92CF92DF9287
:10083000EF92FF920F931F93CF93DF9300D01F92FD
:10084000CDB7DEB7FC01E85AFF4F20812F3F11F1F1
:100850005A019B0147E64983319640814A83399783
:10086000CC24C394D12CCE0103967C01850142E0B7
:1008700050E0BE016F5F7F4F808191810E945E07D3
:100880008B81882329F090E091958195910904C08E
:10089000C50102C08FEF9FEF0F900F900F90DF9177
:1008A000CF911F910F91FF90EF90DF90CF90BF906D
:1008B000AF9008958F929F92AF92BF92CF92DF92A6
:1008C000EF92FF920F931F93CF93DF931F92CDB7B9
:1008D000DEB75C019B014A01DC0152968C918111CB
:1008E00005C07B018B01040F151F31C080E5898392
:1008F000C12CD12CE12CF12C8A0141E050E0BE0149
:100900006F5F7F4FF501848595850E945E0722C049
:10091000D5015596ED91FC91569753968C9153972E
:1009200091E0980F53969C93D7019D917D01E80F1C
:10093000F11D9083F50193898489981308C0019073
:10094000F081E02D0680F781E02DC5010995E016C4
:10095000F106F1F6C4010F90DF91CF911F910F9135
:10096000FF90EF90DF90CF90BF90AF909F908F90CF
:100970000895EF92FF920F931F93CF93DF931F92EF
:10098000CDB7DEB77C01162F0FB7F894DC0159966E
:100990008D919C915A97DC01ED91FC910088F18931
:1009A000E02D4983099560E0F701838D0E94AD1425
:1009B000D70159968D919C915A97DC01ED91FC914C
:1009C000612F60680190F081E02D0995182FF701E3
:1009D000818D928DDC01ED91FC910190F081E02DF3
:1009E0004981642F099561E0F701838D0E94AD1460
:1009F000D70159968D919C915A97DC01ED91FC910C
:100A00000288F389E02D09950FBF812F0F90DF91A8
:100A1000CF911F910F91FF90EF9008950F931F9327
:100A2000CF93DF93EC01162F0FB7F89460E08B8D16
:100A30000E94AD14898D9A8DDC01ED91FC91612F9E
:100A40006F770190F081E02D0995898D9A8DDC01F9
:100A5000ED91FC910190F081E02D60E00995182F57
:100A600061E08B8D0E94AD140FBF812FDF91CF917C
:100A70001F910F9108950F931F93CF93DF9300D091
:100A8000CDB7DEB78C01FC018189882369F087E747
:100A9000898386858A8342E050E0BE016F5F7F4F85
:100AA000848595850E94FD08F801118A0F900F90AA
:100AB000DF91CF911F910F910895EF92FF920F93C5
:100AC0001F93CF93DF9300D01F92CDB7DEB7FC0109
:100AD0002289211118C07C01138A8FE4898380E464
:100AE0008B8386858A839F012C5E3F4F00E410E054
:100AF00043E050E0BE016F5F7F4F848595850E9483
:100B0000E808F701828B0F900F900F90DF91CF9143
:100B10001F910F91FF90EF900895CF93DF93EC0119
:100B20000E945D058A89882331F08B89C80FD11D09
:100B30008C8990E002C08FEF9FEFDF91CF910895F5
:100B4000CF93DF93EC010E945D058A89882359F0D9
:100B500081508A8B8B8991E0980F9B8BC80FD11D98
:100B60008C8990E002C08FEF9FEFDF91CF910895C5
:100B7000CF93DF93EC010E945D058A8990E0DF91BD
:100B8000CF910895EF92FF920F931F93CF93DF932E
:100B900000D01F92CDB7DEB77C0186E68983F701CE
:100BA000E75AFF4F80818A83399701E010E09E0168
:100BB0002D5F3F4F42E050E0BE016F5F7F4F80816D
:100BC00091810E94E808F701E85AFF4F8FEF808378
:100BD0000F900F900F90DF91CF911F910F91FF9089
:100BE000EF900895CF93DF93EC018A89811108C0BB
:100BF0008D899E89009711F00E943A1C81E08A8BB2
:100C000088899989009721F00E943A1C198A188ACC
:100C1000DF91CF910895BF92CF92DF92EF92FF9232
:100C20000F931F93CF93DF93CDB7DEB72E970FB6F9
:100C3000F894DEBF0FBECDBF7C01C7010E94420702
:100C400068EE73E080E090E00E941915D7011596D8
:100C50008D919C911697DC01ED91FC910084F185BA
:100C6000E02D09951816190644F385E0D82ECC24FA
:100C7000C39492E3B92EEEE0F1E0DE0111968D2DE2
:100C800001900D928A95E1F7F701C08645E050E0AA
:100C9000BE016F5F7F4FC7010E94FD08D701159607
:100CA0008D919C911697DC01ED91FC910190F08162
:100CB000E02D63E009956AEF70E080E090E00E942B
:100CC000191566E770E0F701858196810E94081486
:100CD0006AEF70E080E090E00E94191564E770E030
:100CE000D70115968D919C9116970E94081464EF78
:100CF00071E080E090E00E94191568E670E0F7016D
:100D0000858196810E94081464EF71E080E090E094
:100D10000E941915C7010E944207E3E1F1E0DE01DC
:100D200016968D2D01900D928A95E1F7D7011896B0
:100D3000BC9204E010E09E01255F3F4F45E050E08B
:100D4000BE016A5F7F4FC7010E94E8088F3FBFEF77
:100D50009B0739F468EE73E080E090E00E9419157B
:100D60008ACF2B852111FFCF049701F52C8530E028
:100D70002053310984E6829FA001839F500D1124E6
:100D80002D8530E0205331096AE0629FC001639FE6
:100D9000900D1124840F951F2E8530E020533109CA
:100DA000820F931FF7019283818307C084E690E04E
:100DB000D70112969C938E93119782E3F701808757
:100DC0002E960FB6F894DEBF0FBECDBFDF91CF9148
:100DD0001F910F91FF90EF90DF90CF90BF900895FB
:100DE000FC01238134812627022E2295207F202595
:100DF000032E322F22952F70022626953227232785
:100E0000220F220F220F2025348323830895089573
:100E100080E090E008958F929F92AF92BF92CF9220
:100E2000DF92EF92FF92CF93DF93EC016B010E9470
:100E300053154B015C01E12CF12C8D819E81DC016D
:100E4000ED91FC910284F385E02D099597FF0FC089
:100E50000E945315DC01CB0188199909AA09BB0925
:100E60008C159D05AE05BF0540F38FEF9FEFDF9119
:100E7000CF91FF90EF90DF90CF90BF90AF909F9079
:100E80008F900895CF93DF93EC018D819E81DC01DB
:100E9000ED91FC910084F185E02D09951816190655
:100EA00054F48D819E81DC01ED91FC910284F385E7
:100EB000E02D0995EACFDF91CF9108952F923F92CF
:100EC0004F925F926F927F928F929F92AF92BF925A
:100ED000CF92DF92EF92FF920F931F93CF93DF9306
:100EE000CDB7DEB72B970FB6F894DEBF0FBECDBFE0
:100EF0009B878A875B011901FD82EC823A01600EB3
:100F0000711E872C7B82912C44244A94542C9B0183
:100F1000240F351F3F832E839101200F311F398706
:100F20002887EA85FB858085981608F036C1AA8552
:100F3000BB8514965C924E92139715968D919C9159
:100F40001697DC01ED91FC910190F081E02D6FEF9F
:100F500009956FEF8A859B850E94F006EA85FB85DF
:100F600085819681DC01ED91FC910190F081E02D6D
:100F7000AA85BB856C910995EA85FB856081CF01C7
:100F80000E94F006AA85BB8515968D919C911697B7
:100F9000DC01ED91FC910190F081E02D682D099527
:100FA0006B818A859B850E94F006EA85FB85858199
:100FB0009681DC01ED91FC910190F081E02D662D90
:100FC0000995662D8A859B850E94F00675012E8104
:100FD0003F81E216F306B1F0EA85FB8585819681B3
:100FE0008701DC01ED91FC910190F081E02DD701AA
:100FF0006D917D010995F80160818A859B850E942C
:10100000F006E5CF7101AA85BB8515968D919C915F
:10101000169728853985E216F30691F08701DC01E1
:10102000ED91FC910190F081E02DD7016D917D0152
:101030000995F80160818A859B850E94F006E3CFBF
:10104000DC01ED91FC91AA85BB8514966C91019011
:10105000F081E02D0995EA85FB8585819681DC018B
:10106000ED91FC910190F081E02DAA85BB8513964E
:101070006C91099568EC70E08A859B850E940B074E
:101080008F3F910509F07DC0EA85FB85548243823C
:101090006FEFCF010E94F00665E070E08A859B85C6
:1010A0000E940B07AA85BB856C91262F30E0821722
:1010B000930709F066C0CD010E94F0066AE070E077
:1010C0008A859B850E940B077C0197FD5AC0682F7B
:1010D0008A859B850E94F0066AE070E08A859B8580
:1010E0000E940B078C0197FD4CC0682F8A859B8559
:1010F0000E94F006EA821982E981FA810E0F1F1F11
:10110000E12CF12C65E070E08A859B85E016F10604
:10111000A9F0EC14FD0491F00E940B0797FD0AC0A2
:10112000EC81FD81EE0DFF1D8083682F8A859B85F4
:101130000E94F006FFEFEF1AFF0AE4CF0E940B07B0
:101140007C0197FD1EC065E070E08A859B850E944A
:101150000B0797FD16C0FE2CEE248E0D9F1DAA8551
:10116000BB8513962D913C9114972817390749F4A4
:101170008C918F5F8C93C801C016D10680F4C60194
:101180000EC0939464E670E080E090E00E94191530
:101190008A859B850E944207C4CE8FEF9FEF2B96D6
:1011A0000FB6F894DEBF0FBECDBFDF91CF911F9178
:1011B0000F91FF90EF90DF90CF90BF90AF909F90F6
:1011C0008F907F906F905F904F903F902F900895F9
:1011D000CF92DF92EF92FF920F931F9368017901F4
:1011E00000E010E020E030E00E945E071F910F91C8
:1011F000FF90EF90DF90CF9008950F931F9300E042
:1012000010E020E030E00E94E8081F910F9108955F
:101210002F923F924F925F926F927F928F929F9206
:10122000AF92BF92CF92DF92EF92FF920F931F93F4
:10123000CF93DF93CDB7DEB7C656D1400FB6F89443
:10124000DEBF0FBECDBF2DB63EB68BEFCA59DE4F07
:101250008883C656D140AE014A595E4F8E010F5F5A
:101260001F4FB8018DE494E00E94C90E882309F451
:1012700063C3CA59DE4F8881C656D140811103C06D
:101280008EED91E05BC390E0AC0142505109052E18
:10129000000C660B770B411551056105710551F185
:1012A0006801812C912C540120E030E084169506D1
:1012B000A606B706E0F4D601ED916D013E27E0E009
:1012C000F0E07901EE0CFF1C37FF06C09701B1E298
:1012D0002B27B0E13B2701C097013196E830F1059B
:1012E00081F7EFEF8E1A9E0AAE0ABE0ADFCF422FB9
:1012F000232F02C040E020E04093490320934A039B
:10130000FE01E80FF91F208130E0322F2227EFEF96
:10131000FFEFEC0FFD1FE80FF91F8081A901482B9B
:10132000CA01909348038093470387EF91E00E949E
:101330000F0D7801CA59DE4F8881C656D14090E022
:101340009701201B310B2817390774F4D7016D91D1
:101350007D0170E080E090E040E10E94110D84E2A8
:1013600092E00E940F0DE6CF89E092E00E94C10C4E
:101370002091490330914A0380914703909148039B
:101380002817390709F0A5C28DB69EB68EE0EFEC9E
:10139000F2E0DE01A05BBE4F01900D928A95E1F76D
:1013A0008981C05BDE4F8883C055D1408A81CF5A86
:1013B000DE4F8883C155D1408B81CE5ADE4F888362
:1013C000C255D1404EE0BE01605B7E4F8DE494E09B
:1013D0000E94180E8DE494E00E942C01898190E017
:1013E000880F991F2A81820F911D880F991F2B81C9
:1013F000820F911D90934603809345038CE092E009
:101400000E940F0DCA59DE4F6881C656D14070E068
:1014100080E090E04AE00E94110D89E092E00E9495
:10142000C10CCA59DE4F8881C656D14090E004975E
:1014300090934403809343039C01220F331FEDB725
:10144000FEB7E21BF30B0FB6F894FEBF0FBEEDBF65
:101450003196BE016C5F7F4F7F018F0120E030E04D
:10146000281739075CF4DB014D91BD0150E0D8012C
:101470004D935D938D012F5F3F4FF2CF6080718060
:10148000A280B38004811581C680D78086E292E075
:101490000E940F0DB301770C880B990B97FF03C0C7
:1014A0000E94520D03C04AE00E94110D87E392E0B2
:1014B0000E940F0DC5010E94790D89E392E00E9400
:1014C0000F0DB801110F880B990B97FF03C00E94F5
:1014D000520D03C04AE00E94110D87E392E00E9482
:1014E0000F0DC6010E94790D60914503709146036E
:1014F0004AE0CE0184509F4F0E94BB13BE0164504E
:101500007F4F83EF93E00E94910DCE0184509F4F57
:101510000E94B61329EFC22E23E0D22E00E010E085
:10152000809143039091440308171907DCF4F701F5
:10153000619171917F014AE0CE0184509F4F0E94DA
:10154000BB130F5F1F4FBE0164507F4FC6010E9447
:10155000910DCE0184509F4F0E94B613F6E0CF0E3E
:10156000D11CDECF87E492E00E94D90CC250DF4F3D
:1015700019821882CE5FD04088EE93E0A0E0B0E000
:10158000C050DF4F88839983AA83BB83C050D1406A
:101590008CE191E0C450DF4F99838883CC5FD040C9
:1015A00088EE93E0C85FDE4F99838883C850D140AE
:1015B000C35FDE4F1882CD50D140C25FDE4F18822C
:1015C000CE50D140C15FDE4F1882CF50D14087E668
:1015D00092E00E940F0D5E0142EAA41A4EEFB40A97
:1015E0006CE672E0C5010E94F313CE0184509F4F58
:1015F0000E943B0586E090E00E94A51B8C01DC0167
:1016000011961C921E9213961C921E92129715967A
:101610001C921E9214978A159B0551F0F50160816A
:1016200071816115710521F0448155810E94CA0DB7
:10163000C55FDE4F19830883CB50D140C5010E949E
:10164000B61303EF13E0C12CD12C8091430390918A
:101650004403C816D9060CF06BC0C55FDE4F688026
:101660007980CB50D140D3011496ED90FC90159722
:10167000BFEFEB1AFB0AB701C3010E948F13882347
:1016800081F0F301208131818481958160E772E0EE
:10169000820F931F0E94AA1DD3011596FC92EE9211
:1016A0001497C55FDE4F68807980CB50D140F80138
:1016B0008481958140805180D3011496ED90FC90F7
:1016C000159741145104C9F00097B9F0E80EF91EBE
:1016D000B701C3010E948F13882379F0F3012081A1
:1016E000318184819581B201820F931F0E94AA1DCE
:1016F000D3011596FC92EE921497E0916F05F0914C
:101700007005D80114964D915C9115976D917C915F
:101710000280F381E02D8FE695E0099584E292E066
:101720000E940F0DBFEFCB1ADB0A0A5F1F4F8DCF50
:101730008BE092E00E94D90C82E5CC59DE4F888381
:10174000C456D140C55FDE4FE881F981CB50D1400E
:10175000048115812081318192E0C92ED12C75013F
:1017600041E050E0BE016C597E4FC85FDE4F88817A
:101770009981C850D1400E945E07F5018181C65F02
:10178000DE4F8883CA50D140C55FDE4F0881198182
:10179000CB50D1400115110531F0C8010E94B6139C
:1017A000C8010E943A1CC55FDE4F19821882CB50D7
:1017B000D140D5018C91811106C081E0C35FDE4F1D
:1017C0008883CD50D14082E7F82EF501F082C65FC4
:1017D000DE4F8881CA50D140818301E010E09E0134
:1017E0002C593E4F42E050E0B501C85FDE4F888182
:1017F0009981C850D1400E94E808CC59DE4F8881B9
:10180000C456D140813039F464E670E080E090E065
:101810000E941915DACF87E5CC59DE4F8883C4566C
:10182000D140C65FDE4F8881CA50D140CB59DE4FD0
:101830008883C556D14002E010E0950142E050E0B7
:10184000BE016C597E4FC85FDE4F88819981C850B8
:10185000D1400E94E80882E792E00E940F0DCE017D
:1018600084509F4F0E945D05C25FDE4F8881CE503D
:10187000D140882359F0CE0184509F4F0E94A0058B
:10188000682F8FE695E00E94FB02E9CF8BE092E0A3
:101890000E94D90C88E892E00E94D90C8CE191E07A
:1018A000C450DF4F99838883CC5FD040CE018450F1
:1018B0009F4F0E943B0586E992E00E94D90C8BE085
:1018C00092E00E94D90C0FB6F8949EBE0FBE8DBE5A
:1018D00037C08BE0EDEDF2E0DE01A450BF4F019088
:1018E0000D928A95E1F78981C450DF4F8883CC5FE0
:1018F000D0408A81C350DF4F8883CD5FD0408B8139
:10190000C250DF4F8883CE5FD0408BEB92E00E94C5
:10191000D90C4BE0BE0164507F4F8DE494E00E94EF
:10192000180E8DE494E00E942C0186E992E00E945A
:10193000D90C8BE092E002C083EC92E00E94D90CBB
:101940000FB6F8943EBE0FBE2DBECA59DE4F0FB67D
:10195000F894DEBF0FBECDBFDF91CF911F910F91E5
:10196000FF90EF90DF90CF90BF90AF909F908F90BF
:101970007F906F905F904F903F902F9008950E94BE
:101980009C1DBC01009791F0FC0101900020E9F73B
:101990003197AF01481B590BE0916F05F09170052D
:1019A0000280F381E02D8FE695E0099480E090E0DD
:1019B0000895CF93DF930E94C10CEC0189E092E07F
:1019C0000E94C10C8C0F9D1FDF91CF910895CF9382
:1019D000DF93EC0144E06DE40E94B90448E869E05B
:1019E000CE01DF91CF910C94B9048230B8F4E82F86
:1019F000F0E0EE0FFF1FE050FF4F718360838130F6
:101A000039F080916900836080936900E89A0895B5
:101A1000809169008C6080936900E99A08950C9424
:101A2000C10C8F929F92AF92BF920F931F93CF934F
:101A3000DF93CDB7DEB7A1970FB6F894DEBF0FBE28
:101A4000CDBF19A2423008F44AE08E010F5D1F4F4E
:101A5000842E912CA12CB12CA50194010E94A01AD6
:101A6000E62FB901CA0101501109EA3014F4E05D12
:101A700001C0E95CD801EC93232B242B252B61F7C3
:101A8000C8010E94C10CA1960FB6F894DEBF0FBE2C
:101A9000CDBFDF91CF911F910F91BF90AF909F90DD
:101AA0008F900895CF92DF92EF92FF92CF93DF93C2
:101AB0006B017C01E0916F05F09170050190F08160
:101AC000E02D6DE28FE695E00995EC01662777271A
:101AD000CB016C197D098E099F094AE00E94110D06
:101AE0008C0F9D1FDF91CF91FF90EF90DF90CF90F3
:101AF0000895CF93DF93BC01990F880B990B97FF43
:101B000003C00E94520D03C04AE00E94110DEC0177
:101B100089E092E00E94C10C8C0F9D1FDF91CF9154
:101B200008950F931F93CF93DF938C01EB01FC017A
:101B3000808191810097B1F068817981611571058B
:101B400079F0428153812C813D814217530740F047
:101B50000E94AA1D8C819D81F8019583848313C006
:101B60000E943A1C88819981F801918380838A813F
:101B70009B81938382838C819D8195838483198249
:101B800018821B821A821D821C82DF91CF911F91C5
:101B90000F910895EF92FF920F931F93CF93DF93CE
:101BA000EC017B018A01BA010E948F1328813981DF
:101BB00081110DC02115310519F0C9010E943A1C8F
:101BC000198218821D821C821B821A8206C01D8304
:101BD0000C83B701C9010E94AA1DCE01DF91CF91EC
:101BE0001F910F91FF90EF900895CF93DF93FC0129
:101BF0002281338123303105B9F0EC018281938158
:101C0000049771F045E061E0CF010E94B90440E023
:101C100060E4CE010E94B90484E090E09B838A8353
:101C2000C15EDE4F888101C080E0DF91CF910895D1
:101C3000BF92CF92DF92EF92FF920F931F93CF93B9
:101C4000DF934C3F10F0C12C81C0142F072FD62EEC
:101C5000EC01E881F9810484F585E02D0995CE0138
:101C60000E94F715E881F9810288F389E02DCE0101
:101C70000995C82E882339F340E06DE0CE010E941B
:101C8000B9044A8560E0CE010E94B9044B8560E04A
:101C9000CE010E94B9044C8560E0CE010E94B904D7
:101CA0004D8560E0CE010E94B904BFB6F894898DDD
:101CB0009A8DDC01ED91FC910088F189E02D099568
:101CC00060E08B8D0E94AD14898D9A8DDC01ED91C1
:101CD000FC910190F081E02D60E80995ED2CF02E4B
:101CE000012F015068F0898D9A8DF70161917F0174
:101CF000DC01ED91FC910190F081E02D0995F1CF8F
:101D000061E08B8D0E94AD14898D9A8DDC01ED917F
:101D1000FC910288F389E02D0995BFBE44E0410F94
:101D200062E2CE010E94B9048A819B81039771F01F
:101D300043E061E0CE010E94B90440E460E4CE01DA
:101D40000E94B90483E090E09B838A838C2DDF910D
:101D5000CF911F910F91FF90EF90DF90CF90BF90A8
:101D60000895CF93DF93FC01228133812230310526
:101D700069F0EC01678D858D0E94AD1460E08C8D5B
:101D80000E94AD1482E090E09B838A83DF91CF9123
:101D90000895CF92DF92EF92FF920F931F93CF930C
:101DA000DF93EC017B018A01E881F9810280F381F4
:101DB000E02D0995D82E882339F1E114F104E1F0E2
:101DC00001151105C9F0CFB6F8942F8D30E02350DE
:101DD0003109F801808190E0821793071CF09F8DF4
:101DE00094509083F801408150E0BE016C5D7F4FBC
:101DF000C7010E94A11DCFBE8FB7F894FE01E15E1E
:101E0000FE4F10821F8E8FBF8D2DDF91CF911F91BE
:101E10000F91FF90EF90DF90CF900895DF92EF92B7
:101E2000FF920F931F93CF93DF93EC0162E10E9427
:101E30000E052A813B812430310519F4982F907AC0
:101E400041F42A813B8124303105C9F486FD25C047
:101E500016C0888999890196998B888B4FEF62E12A
:101E6000CE010E94B9044FEF62E1CE01DF91CF9124
:101E70001F910F91FF90EF90DF900C94B9042A818D
:101E80003B812330310509F0BAC083FFB8C08C898B
:101E90009D8901969D8B8C8BBCC063E1CE010E9415
:101EA0000E05F82E60E1CE010E940E05482F6DE070
:101EB000CE010E94B904DFB6F894898D9A8DDC01B9
:101EC000ED91FC910088F189E02D099560E08B8D02
:101ED0000E94AD14898D9A8DDC01ED91FC910190E9
:101EE000F081E02D60E009958E01005E1F4FEF2C20
:101EF000E00EE01671F0898D9A8DDC01ED91FC9178
:101F00000190F081E02D60E00995F80181938F0147
:101F1000F0CF61E08B8D0E94AD14898D9A8DDC012C
:101F2000ED91FC910288F389E02D0995DFBEFF8ECB
:101F30004FEF62E1CE010E94B90469E1CE010E9437
:101F40000E058E010F5D1E4F87FD8D5F8595859572
:101F5000F80180836AE1CE010E940E0590E09F8720
:101F60008E87D8012C918E859F8527FF07C0820F11
:101F7000911D27FD9A959F878E870BC024E0880FBF
:101F8000991F2A95E1F76FE070E00E94771B7F8729
:101F90006E87FE01E05EFE4F8081882329F08E85EA
:101FA0009F858D59910904C08E859F85845A91091A
:101FB0009F878E878F8DFE01E15EFE4F843090F00B
:101FC00088A18E8389A18F838AA188878BA1898725
:101FD0008D8181110CC09E818C81981741F08E817A
:101FE0008F3F29F08081882309F438CF12C08A8975
:101FF0009B8901969B8B8A8B81E08083F3CF2A811A
:102000003B812530310509F029CF82FF27CF817030
:102010008E8BCE010E94F71521CF80919F05909164
:10202000A005009711F00C940E0F089580919D0566
:1020300090919E05009711F00C940E0F08958091D9
:102040009B0590919C05009711F00C940E0F08953C
:10205000EF92FF920F931F93CF93DF9300D01F92C5
:10206000CDB7DEB78C010E945D01E82E811102C060
:10207000E12C92C0D8015D968C91823029F083309A
:10208000B9F7FF24F39401C0F12CD80159968D9132
:102090009C915A97DC01ED91FC910488F589E02D23
:1020A0006F2D099540E861E0C8010E94B9046AE01B
:1020B00070E080E090E00E94191561E0C8010E9484
:1020C0000E058038A9F660E0F801858D0E94DD14C8
:1020D000D8015E968C915E978F3F51F480919A055E
:1020E000843030F691E0980F90939A055E968C9329
:1020F000F801968DE92FF0E0EE0FFF1FE556FA4F3D
:1021000011830083911103C06FE170E10AC0913027
:1021100019F466E170E105C0923009F0A9CF6DE0D5
:1021200070E18F2D0E94F50C40E06EE0C8010E9426
:10213000B90440E06FE0C8010E94B904C8010E94E0
:10214000F71543E050E062E870E0CE0101960E948E
:102150000C1949816DE1C8010E94B9044A816EE100
:10216000C8010E94B9044B8166E2C8010E94B9040B
:1021700040E060E2C8010E94B90448E061E2C801A1
:102180000E94B90440E050E069ED73E4C8010E9488
:102190000B16C8010E94E70C8E2D0F900F900F9028
:1021A000DF91CF911F910F91FF90EF9008951F92B3
:1021B0000F920FB60F921124CF92DF92EF92FF92FF
:1021C0000F931F932F933F934F935F936F937F933F
:1021D0008F939F93AF93BF93CF93DF93EF93FF932F
:1021E000C0919805D09199058A819B81049709F047
:1021F000CAC02B8D30E0F901E653FF4F8491F901FD
:10220000EA54FF4F0491F901EE55FF4F1491112349
:1022100079F081110E948414E12FF0E0EE0FFF1F8E
:10222000E858FF4FA591B491EC91E02381E009F4C7
:1022300080E081709E8D892719F09BA19F5F9BA3F1
:102240009AA1891771F09CA1903518F02DE130E02A
:1022500002C02BE030E09CA1290F311D2CA38AA3E2
:1022600003C08CA18C5E8CA38CA1803A08F4DDC0E5
:102270008EA19FA1969587959FA38EA38BA1853054
:1022800028F08EA19FA198609FA38EA38CA1805A55
:102290008CA31BA28DA1882309F468C088A58F5F39
:1022A00088A78C3008F4C1C08EA19FA1982F9F737E
:1022B000892F86958695887028E0280F821749F027
:1022C000E82FF0E0E253FE4F3081931719F08F5F53
:1022D000F5CF80E020E1829FC00111242EA13FA113
:1022E00096E0369527959A95E1F7422F36952795F2
:1022F00036952795287038E0320F231749F0E22FE2
:10230000F0E0E253FE4F5081451719F02F5FF5CFF3
:1023100020E0822BAE0143595F4FFA019081DE012C
:10232000A459BF4F9923B1F0FA01908121E0290F00
:1023300020839E01290F311DF90181A7FA019081A7
:102340008C91981788F01DA281E088A3CE010E948D
:10235000B10E0AC08C939C91973008F460C09C9198
:10236000943408F05CC0E0CF18A65FC08EA19FA196
:1023700088339B4009F059C081E08DA318A6C3594A
:10238000DF4F188252C08A819B81039709F04DC0AC
:102390008E0100591F4FF801808191E0980F9083C2
:1023A000811137C07E01FEE6EF0EF11CF70180813E
:1023B000EF56FF4F9081891748F0CE010E94B10E71
:1023C0008C899D8901969D8B8C8B23C0FE01E80F23
:1023D000F11DEF58FF4F608170E06E01FFE6CF0EF8
:1023E000D11CF601808191E0980F908302C0759511
:1023F00067958A95E2F7617077278C8D0E94AD14FE
:10240000F6018081863028F01082F70180818F5F8D
:102410008083F8018081883040F0108206C01DA2C0
:10242000888999890196998B888BFF91EF91DF912B
:10243000CF91BF91AF919F918F917F916F915F915C
:102440004F913F912F911F910F91FF90EF90DF904F
:10245000CF900F900FBE0F901F9018950895CF92B8
:10246000DF92EF92FF920F931F93CF93DF936C0154
:102470007A018B01C0E0D0E0CE15DF0589F0D801EC
:102480006D918D01D601ED91FC910190F081E02DCF
:10249000C6010995892B11F47E0102C02196ECCF6B
:1024A000C701DF91CF911F910F91FF90EF90DF90C7
:1024B000CF900895FC01538D448D252F30E0842F5B
:1024C00090E0821B930B541710F0CF96089501975C
:1024D0000895FC01918D828D981761F0828DDF0146
:1024E000A80FB11D5D968C91928D9F5F9F73928F07
:1024F00090E008958FEF9FEF0895FC01918D828DFC
:10250000981731F0828DE80FF11D858D90E00895C8
:102510008FEF9FEF0895FC01918D228D892F90E020
:10252000805C9F4F821B91098F73992708958BE4DC
:1025300093E00E948B1221E0892B09F420E0822F86
:102540000895FC01848DDF01A80FB11DA35ABF4F70
:102550002C91848D90E001968F739927848FA689A2
:10256000B7892C93A089B1898C9180648C93938DC9
:10257000848D981306C00288F389E02D80818F7DB9
:1025800080830895EF92FF920F931F93CF93DF9371
:10259000EC0181E0888F9B8D8C8D981305C0E889B4
:1025A000F989808185FD24C0F62E0B8D10E00F5F28
:1025B0001F4F0F731127E02E8C8DE8120CC00FB641
:1025C00007FCFACFE889F989808185FFF5CFCE0134
:1025D0000E94A112F1CF8B8DFE01E80FF11DE35A8D
:1025E000FF4FF0820B8FEA89FB898081806207C0F0
:1025F000EE89FF896083E889F9898081806480831E
:1026000081E090E0DF91CF911F910F91FF90EF90CB
:102610000895CF93DF93EC01888D8823C9F0EA8970
:10262000FB89808185FD05C0A889B9898C9186FDCB
:102630000FC00FB607FCF5CF808185FFF2CFA889C8
:10264000B9898C9185FFEDCFCE010E94A112E7CF11
:10265000DF91CF91089580E090E0892B29F00E94CE
:10266000971281110C94000008953FB7F89480915F
:10267000A6059091A705A091A805B091A90526B53A
:10268000A89B05C02F3F19F00196A11DB11D3FBFAA
:10269000BA2FA92F982F8827820F911DA11DB11D38
:1026A000BC01CD0142E0660F771F881F991F4A9534
:1026B000D1F7089508958BEF0895CF93DF93EC0140
:1026C0008A819B81059771F047E061E0CE010E940D
:1026D000B90440E860E4CE010E94B90485E090E0CE
:1026E0009B838A838A819B810597E1F38E89DF91A1
:1026F000CF910895CF93DF93FC0122813381213064
:10270000310549F0EC0140E061E00E94B90481E04C
:1027100090E09B838A8381E0DF91CF9108950F93AE
:102720001F93CF93DF93EC0188819981009729F063
:102730002A813B812617370788F48B016F5F7F4F13
:102740000E94D21C009761F0998388831B830A83BF
:102750002C813D81232B11F4FC01108281E001C00A
:1027600080E0DF91CF911F910F910895FC0180814E
:1027700091810C943A1CEF92FF920F931F93CF9389
:10278000DF93CDB7DEB762970FB6F894DEBF0FBE0A
:10279000CDBF8C01CB01F80111821082138212820D
:1027A0001582148250E09E012F5F3F4F7901B901DD
:1027B0000E941519F70101900020E9F73197AF0148
:1027C0004E195F09B701C8010E94CA0D62960FB683
:1027D000F894DEBF0FBECDBFDF91CF911F910F9157
:1027E000FF90EF900895FC011182108213821282F3
:1027F000158214826115710551F0FB0101900020D2
:10280000E9F73197AF01461B570B0C94CA0D089599
:10281000EF92FF920F931F93CF93DF938C017B0175
:10282000C0E0D0E0F701EC0FFD1F6491662361F07A
:10283000D801ED91FC910190F081E02DC80109953E
:10284000892B11F02196EECFCE01DF91CF911F9110
:102850000F91FF90EF9008951F920F920FB60F9275
:1028600011242F933F934F935F936F937F938F9395
:102870009F93AF93BF93EF93FF938BE493E00E94FA
:10288000A112FF91EF91BF91AF919F918F917F9195
:102890006F915F914F913F912F910F900FBE0F90CD
:1028A0001F9018951F920F920FB60F9211242F931D
:1028B0008F939F93EF93FF93E0915B03F0915C0301
:1028C0008081E0916103F091620382FD12C09081EA
:1028D000809164038F5F8F7320916503821751F09D
:1028E000E0916403F0E0E55BFC4F958F8093640317
:1028F00001C08081FF91EF919F918F912F910F9057
:102900000FBE0F901F901895833081F028F481300E
:1029100099F08230A1F008958730A9F08830B9F09D
:102920008430D1F4809180008F7D03C0809180003D
:102930008F7780938000089584B58F7702C084B527
:102940008F7D84BD08958091B0008F7703C0809102
:10295000B0008F7D8093B00008951F93CF93DF93D5
:10296000282F30E0F901E653FF4F8491F901EA5432
:10297000FF4FD491F901EE55FF4FC491CC23C9F01C
:10298000162F81110E948414EC2FF0E0EE0FFF1F30
:10299000E856FF4FA591B4918FB7F894111105C077
:1029A0009C91ED2FE095E92302C0EC91ED2BEC9387
:1029B0008FBFDF91CF911F910895CF93DF9390E068
:1029C000FC01EA54FF4F2491FC01EE55FF4F849126
:1029D000882361F190E0880F991FFC01E257FF4FB7
:1029E000C591D491FC01E856FF4FA591B4916111B6
:1029F00009C09FB7F8948881209582238883EC9141
:102A00002E230BC0623061F49FB7F8943881822F77
:102A1000809583238883EC912E2B2C939FBF06C037
:102A20008FB7F894E8812E2B28838FBFDF91CF9149
:102A300008958F929F92AF92BF92CF92DF92EF92C2
:102A4000FF926B017C010E9435134B015C01C114A4
:102A5000D104E104F104F1F00E943513DC01CB0153
:102A600088199909AA09BB09883E9340A105B105B7
:102A700070F321E0C21AD108E108F10888EE880E4F
:102A800083E0981EA11CB11CC114D104E104F1041F
:102A900019F7DDCFFF90EF90DF90CF90BF90AF9010
:102AA0009F908F9008952FB7F8946091A205709130
:102AB000A3058091A4059091A5052FBF08951F92AD
:102AC0000F920FB60F9211242F933F938F939F93E2
:102AD000AF93BF938091A2059091A305A091A40507
:102AE000B091A5053091A10523E0230F2D3720F4E7
:102AF0000196A11DB11D05C026E8230F0296A11D58
:102B0000B11D2093A1058093A2059093A305A093E6
:102B1000A405B093A5058091A6059091A705A09165
:102B2000A805B091A9050196A11DB11D8093A60528
:102B30009093A705A093A805B093A905BF91AF9165
:102B40009F918F913F912F910F900FBE0F901F90EB
:102B500018951F920F920FB60F9211242F933F9347
:102B60004F935F936F937F938F939F93AF93BF9395
:102B7000EF93FF93E0910201F09103010995FF911A
:102B8000EF91BF91AF919F918F917F916F915F91E5
:102B90004F913F912F910F900FBE0F901F9018955E
:102BA0001F920F920FB60F9211242F933F934F93C2
:102BB0005F936F937F938F939F93AF93BF93EF93A5
:102BC000FF93E0910001F09101010995FF91EF91D0
:102BD000BF91AF919F918F917F916F915F914F9135
:102BE0003F912F910F900FBE0F901F901895CF938C
:102BF000DF93FC01228133812230310549F0EC0161
:102C000041E061E00E94B90482E090E09B838A8306
:102C1000DF91CF9108958F929F92AF92BF92CF9202
:102C2000DF92EF92FF921F93CF93DF93EC014A0163
:102C30005B0120E034E244E759E4C501B4010E949D
:102C4000791920E034E244E752E40E94D11A0E944C
:102C5000431B6B017C01A7016627772766E0CE0145
:102C60000E94B90477276F2D5E2D4D2D67E0CE01B0
:102C70000E94B9044C2D68E0CE010E94B904C05EE8
:102C8000DE4F11E020E030EC42E454E4C501B40131
:102C90000E94721B87FD10E0188381E0DF91CF91C5
:102CA0001F91FF90EF90DF90CF90BF90AF909F90DB
:102CB0008F900895CF93DF9388E895E00E94B61334
:102CC000CDE4D4E02697CE010E94B61383E0C33F43
:102CD000D807C1F780EC91E09093700580936F0561
:102CE0008FE695E0DF91CF910C94F205CF93DF93BF
:102CF0008BE493E010924E0310924D0348EE53E0A4
:102D000060E070E040934F03509350036093510391
:102D10007093520320E431E030934C0320934B0333
:102D200025EC30E0309358032093570324EC30E037
:102D300030935A032093590320EC30E030935C0326
:102D400020935B0321EC30E030935E0320935D031E
:102D500022EC30E03093600320935F0326EC30E0F8
:102D60003093620320936103109264031092650311
:102D700010926603109267031092910510929005CD
:102D80001092930510929205109295051092940559
:102D900022E531E030938F0520938E0520E52093C6
:102DA00096051092970528EE33E03093870520931F
:102DB0008605109272051092710540937305509329
:102DC0007405609375057093760540EC51E050935F
:102DD000700540936F0530937C0520937B0510921E
:102DE0007D0510927E051092800510927F0521E0EE
:102DF000209381051092E8039093EE038093ED03F6
:102E00001092EF031092F0039093F2038093F1037A
:102E10001092500410924F048FEF809351048093CE
:102E20005704809358041092590410925A04109237
:102E30005E0410925D041092600410925F04109280
:102E400062041092610410926504109264042EE8EA
:102E500035E030936704209366049AE09093680409
:102E60002AE831E030934E0420934D0410926C0513
:102E700092E090936A0480936B04C3EFD3E06BE01D
:102E800072E0CE010E94F313269684E0CD34D80779
:102E9000B1F768EE72E088E895E0DF91CF910C948D
:102EA000F313CF93DF93CDB7DEB7C156D1090FB679
:102EB000F894DEBF0FBECDBF789484B5826084BD28
:102EC00084B5816084BD85B5826085BD85B581602E
:102ED00085BD80916E00816080936E0010928100AC
:102EE0008091810082608093810080918100816067
:102EF0008093810080918000816080938000809128
:102F0000B10084608093B1008091B00081608093B3
:102F1000B00080917A00846080937A0080917A007A
:102F2000826080937A0080917A00816080937A0039
:102F300080917A00806880937A001092C100E091BD
:102F4000F103F091F203A089B18982E08C93A4850A
:102F5000B5851C92A685B78580E18C93108EA489D7
:102F6000B58986E08C93A289B3898C9180618C931A
:102F7000A289B3898C9188608C93A289B3898C9142
:102F800080688C930288F389E02D80818F7D808317
:102F90008091EF03811107C081E08093EF0388EEF9
:102FA00093E00E940B0680917B0590917C05FC01CB
:102FB0002781211104C021E027830E940B068FE6A0
:102FC00095E00E94F20580E290E00E94A51B90939C
:102FD000800580937F058DE494E00E942810811184
:102FE00004C08BEF92E00E94D90C46E656E069E5FA
:102FF00074E48DE494E00E940B168DE494E00E944A
:10300000E70C1C821B8288EE93E0A0E0B0E08D8389
:103010009E83AF83B8878EE291E09A83898388EE9E
:1030200093E063969FAF8EAF63976BE072E0CE0143
:103030008D5A9F4F0E94F31381E06A968FAF6A9773
:1030400043E150E067E073E0CE018D5A9F4F0E944C
:10305000CA0D82E76C968FAF6C9787E76D968FAF3E
:103060006D9781E66E968FAF6E9786E4A1968FAFCF
:10307000A1976A968FAD6A97EBE5F0E0EC0FFD1F24
:10308000E80FF11D8081A2968FAFA29781E090E0BA
:10309000988B8F8769960EAD1FAD699765962EAD9B
:1030A0003FAD659782E0C82ED12CCE01825A9F4F4A
:1030B0007C0142E050E0BE01605A7F4F63968EADC6
:1030C0009FAD63970E945E076F968FAD6F978823C1
:1030D00029F08FEF6A968FAF6A9707C0A0968FADE1
:1030E000A0976B968FAF6B971D8640918C05509182
:1030F0008D056091880570918905CE0101960E9429
:1031000014046A968FAD6A978F3F21F0CE01019625
:103110000E94C2058EE291E09A8389836A968FAD00
:103120006A978F3F21F0CE0101960E94C205CE0121
:103130008D5A9F4F0E94B6138BE193E00E94D90CE9
:1031400088E293E00E94D90C60ED77E08DE494E092
:103150000E94410281110E9408090E942B13F4CFA2
:103160008F929F92AF92BF92CF92DF92EF92FF9297
:10317000CF93DF93EC01688179818A819B8161150E
:1031800071058105910521F464E279ED8BE597E005
:103190002DE133EF41E050E00E94371A49015A0116
:1031A0009B01AC01A7EAB1E40E94561A6B017C01B5
:1031B000ACEEB4EFA50194010E94641ADC01CB01CE
:1031C0008C0D9D1DAE1DBF1DB7FF03C00197A1094A
:1031D000B04888839983AA83BB83BC01CD019F77C4
:1031E000DF91CF91FF90EF90DF90CF90BF90AF90A5
:1031F0009F908F9008950E94B018089584E091E008
:103200000E94B018089560930401709305018093A3
:103210000601909307010895FB01DC0102C00590AF
:103220000D9241505040D8F708954532510520F491
:10323000423010F00C942019FB011082CB0108954C
:10324000BB274A3031F4992322F4BDE29095819551
:103250009F4F0C942C19BB27FB015527AA27880FD9
:10326000991FAA1FA41710F0A41B83955051B9F7FA
:10327000A05DAA3308F0A95DA193009779F7B11179
:10328000B1931192CB010C944519DC01FC01672F1D
:1032900071917723E1F7329704C07C916D9370832D
:1032A0006291AE17BF07C8F30895990F0008550F34
:1032B000AA0BE0E8FEEF16161706E807F907C0F0BC
:1032C00012161306E407F50798F0621B730B840BC4
:1032D000950B39F40A2661F0232B242B252B21F49E
:1032E00008950A2609F4A140A6958FEF811D811D3E
:1032F00008950E948C190C94FD190E94EF1938F062
:103300000E94F61920F0952311F00C94E6190C9404
:10331000EC1911240C94311A0E940E1A70F3959F27
:10332000C1F3950F50E0551F629FF001729FBB27BC
:10333000F00DB11D639FAA27F00DB11DAA1F649F58
:103340006627B00DA11D661F829F2227B00DA11D0B
:10335000621F739FB00DA11D621F839FA00D611D91
:10336000221F749F3327A00D611D231F849F600DB2
:10337000211D822F762F6A2F11249F5750409AF0DB
:10338000F1F088234AF0EE0FFF1FBB1F661F771F67
:10339000881F91505040A9F79E3F510580F00C9432
:1033A000E6190C94311A5F3FE4F3983ED4F3869506
:1033B00077956795B795F795E7959F5FC1F7FE2BD2
:1033C000880F911D9695879597F9089597F99F67AE
:1033D00080E870E060E008959FEF80EC089500249D
:1033E0000A941616170618060906089500240A946A
:1033F00012161306140605060895092E0394000CF0
:1034000011F4882352F0BB0F40F4BF2B11F460FF7E
:1034100004C06F5F7F4F8F4F9F4F089557FD9058A7
:10342000440F551F59F05F3F71F04795880F97FB88
:10343000991F61F09F3F79F0879508951216130642
:103440001406551FF2CF4695F1DF08C01616170671
:103450001806991FF1CF86957105610508940895A6
:10346000E894BB2766277727CB0197F90895052EA7
:1034700097FB1EF400940E944E1A57FD07D00E943D
:10348000A01A07FC03D04EF40C944E1A50954095A8
:10349000309521953F4F4F4F5F4F08959095809500
:1034A000709561957F4F8F4F9F4F08950E94C21A6C
:1034B000A59F900DB49F900DA49F800D911D112488
:1034C0000895B7FF0C94561A0E94561A821B930B4C
:1034D00008952F923F924F925F926F927F928F92B8
:1034E0009F92AF92BF92CF92DF92EF92FF920F9393
:1034F0001F93CF93DF93CDB7DEB7CA1BDB0B0FB69D
:10350000F894DEBF0FBECDBF09942A883988488859
:103510005F846E847D848C849B84AA84B984C884EF
:10352000DF80EE80FD800C811B81AA81B981CE0FE6
:10353000D11D0FB6F894DEBF0FBECDBFED010895CB
:10354000A1E21A2EAA1BBB1BFD010DC0AA1FBB1FA7
:10355000EE1FFF1FA217B307E407F50720F0A21B19
:10356000B30BE40BF50B661F771F881F991F1A9486
:1035700069F760957095809590959B01AC01BD01B0
:10358000CF010895A29FB001B39FC001A39F700D0A
:10359000811D1124911DB29F700D811D1124911D5B
:1035A00008950E94E51A0C94FD190E94F61958F02E
:1035B0000E94EF1940F029F45F3F29F00C94E619BE
:1035C00051110C94311A0C94EC190E940E1A68F3E4
:1035D0009923B1F3552391F3951B550BBB27AA27CC
:1035E00062177307840738F09F5F5F4F220F331F06
:1035F000441FAA1FA9F335D00E2E3AF0E0E832D0CE
:1036000091505040E695001CCAF72BD0FE2F29D0D0
:10361000660F771F881FBB1F261737074807AB07A2
:10362000B0E809F0BB0B802DBF01FF2793585F4F17
:103630003AF09E3F510578F00C94E6190C94311A3B
:103640005F3FE4F3983ED4F3869577956795B795F9
:10365000F7959F5FC9F7880F911D9695879597F904
:103660000895E1E0660F771F881FBB1F621773077D
:103670008407BA0720F0621B730B840BBA0BEE1F92
:1036800088F7E09508950E94161A88F09F5798F0E1
:10369000B92F9927B751B0F0E1F0660F771F881F57
:1036A000991F1AF0BA95C9F714C0B13091F00E9471
:1036B000301AB1E008950C94301A672F782F8827BC
:1036C000B85F39F0B93FCCF3869577956795B39598
:1036D000D9F73EF490958095709561957F4F8F4F07
:1036E0009F4F08950E94551908F48FEF089597FB96
:1036F000072E16F4009407D077FD09D00E948B1B8B
:1037000007FC05D03EF4909581959F4F08957095E4
:1037100061957F4F0895AA1BBB1B51E107C0AA1FEB
:10372000BB1FA617B70710F0A61BB70B881F991F62
:103730005A95A9F780959095BC01CD010895EE0F9B
:10374000FF1F0590F491E02D0994CF93DF93823011
:10375000910510F482E090E0E091AC05F091AD05A8
:1037600020E030E0C0E0D0E0309711F1408151819D
:1037700048175907C0F04817590761F482819381AF
:10378000209719F09B838A832BC09093AD0580937B
:10379000AC0526C02115310519F04217530718F45E
:1037A0009A01BE01DF01EF010280F381E02DDCCF41
:1037B0002115310509F1281B390B2430310590F40E
:1037C00012968D919C9113976115710521F0FB0163
:1037D0009383828304C09093AD058093AC05FD0173
:1037E000329644C0FD01E20FF31F81939193225062
:1037F00031092D933C933AC02091AA053091AB0535
:10380000232B41F420910A0130910B013093AB0539
:103810002093AA0520910801309109012115310555
:1038200041F42DB73EB740910C0150910D01241B7E
:10383000350BE091AA05F091AB05E217F307A0F470
:103840002E1B3F0B2817390778F0AC014E5F5F4FF6
:103850002417350748F04E0F5F1F5093AB05409378
:10386000AA058193919302C0E0E0F0E0CF01DF91DF
:10387000CF9108950F931F93CF93DF93009709F48F
:103880008CC0FC013297138212820091AC0510911A
:10389000AD050115110581F420813181820F931F3F
:1038A0002091AA053091AB052817390779F5F093D7
:1038B000AB05E093AA0571C0D80140E050E0AE1717
:1038C000BF0750F412962D913C911397AD0121152D
:1038D000310509F1D901F3CF9D01DA013383228348
:1038E00060817181860F971F8217930769F4EC013D
:1038F00028813981260F371F2E5F3F4F3183208368
:103900008A819B8193838283452B29F4F093AD05B3
:10391000E093AC0542C01396FC93EE931297ED0131
:10392000499159919E01240F351FE217F30771F455
:1039300080819181840F951F029611969C938E939E
:103940008281938113969C938E931297E0E0F0E02E
:10395000D80112968D919C911397009719F0F80158
:103960008C01F6CF8D919C9198012E5F3F4F820F75
:10397000931F2091AA053091AB052817390769F4E8
:10398000309729F41092AD051092AC0502C0138255
:1039900012821093AB050093AA05DF91CF911F917E
:1039A0000F910895A0E0B0E0E8EDFCE10C946D1AF1
:1039B000EC01009721F4CB010E94A51BB8C0FC01CB
:1039C000E60FF71F9C0122503109E217F30708F4B4
:1039D000ACC0D9010D911C91119706171707B0F0D3
:1039E0000530110508F49FC0C80104978617970792
:1039F00008F499C002501109061B170B019311938B
:103A00006D937C93CF010E943A1C8DC05B01A01A7C
:103A1000B10A4C01800E911EA091AC05B091AD058C
:103A200040E050E0E12CF12C109709F44AC0A815B1
:103A3000B905D1F56D907C901197630182E0C80EB5
:103A4000D11CCA14DB0480F1A3014A195B096A0185
:103A500082E0C80ED11C1296BC9012971396AC91BE
:103A6000B5E0CB16D10440F0B282A38351834083EA
:103A7000D9016D937C930AC00E5F1F4FC301800F65
:103A8000911FF90191838083EB2DFA2FE114F1044A
:103A900031F0D7011396FC93EE93129744C0F09344
:103AA000AD05E093AC053FC08D919C9111974817EF
:103AB000590708F4AC017D0112960D90BC91A02D20
:103AC000B3CF8091AA059091AB0588159905E1F4D3
:103AD00046175707C8F48091080190910901009793
:103AE00041F48DB79EB740910C0150910D01841B9C
:103AF000950BE817F907C8F4F093AB05E093AA0516
:103B0000F901718360830FC0CB010E94A51B7C016A
:103B1000009759F0A801BE010E94A11DCE010E948C
:103B20003A1CC70104C0CE0102C080E090E0CDB7CE
:103B3000DEB7EEE00C94891A81E090E0F8940C94E2
:103B4000B11DFB01DC0102C001900D9241505040BB
:103B5000D8F70895FB01DC0101900D920020E1F7F8
:103B6000089510E0C0E7D0E004C0FE010E949F1B52
:0C3B70002196C137D107C9F7F894FFCFA8
:103B7C005A135A13010000000000AE05800058587B
:103B8C00585858585831303000000000CA022F12D3
:103B9C0008074501B805A0058D0500000000470188
:103BAC001404080746017B039803850300000000FA
:103BBC00C2122F125A1209138B1269127D120000B5
:103BCC000000E200DE00DA007B01C600F100ED002F
:103BDC00E900AD009C009B0000000000BF0C2F1200
:103BEC0008070707BF0CBF0CBF0C00000000BF0C80
:103BFC002F1208070707000000002810F50DC90E4A
:103C0C00180E5B1334012C011002410276025D1375
:103C1C00240121011E011B011401270111010E01B8
:103C2C000B0108017A130201FE00FA0000000000EB
:103C3C00FB025A040807E7020A04F003DB030D0E2B
:103C4C00131516191A1C232526292A2C3234412027
:103C5C006D65737361676520686173206265656E5D
:103C6C00206C6F73732100476574204C6F52612078
:103C7C005061636B65743A20000D0A005061796CD9
:103C8C006F6164206C656E67746820776974682056
:103C9C004352433A20004765742054656D70657239
:103CAC0061747572653A002E004765742048756D15
:103CBC0069646974793A0043616C6C204C696E7567
:103CCC007820436F6D6D616E6420746F2053656E48
:103CDC006420446174610061706920006170690046
:103CEC00FE00466565646261636B2066726F6D20D1
:103CFC004C696E75783A200043616C6C2046696E95
:103D0C00697368656400232323232323232323233C
:103D1C002323232323232323232323232323232367
:103D2C00232323232323232323230062616420439F
:103D3C0052430072656376206661696C656400208D
:103D4C0020205365727665722041434B0020202061
:103D5C0042414420435243004C6F72614677644C9D
:103D6C005354323031383036303800696E69742033
:103D7C006661696C6564002F7661722F6176722FB3
:103D8C0066775F76657273696F6E004C6F52612057
:103D9C0047617465776179002020202055706C6F25
:103DAC006164204461746120746F204150490000AB
:107E0000112484B714BE81FFF0D085E080938100F7
:107E100082E08093C00088E18093C10086E0809377
:107E2000C20080E18093C4008EE0C9D0259A86E02C
:107E300020E33CEF91E0309385002093840096BBD3
:107E4000B09BFECF1D9AA8958150A9F7CC24DD24C4
:107E500088248394B5E0AB2EA1E19A2EF3E0BF2EE7
:107E6000A2D0813461F49FD0082FAFD0023811F036
:107E7000013811F484E001C083E08DD089C08234E0
:107E800011F484E103C0853419F485E0A6D080C0E4
:107E9000853579F488D0E82EFF2485D0082F10E0AE
:107EA000102F00270E291F29000F111F8ED06801E7
:107EB0006FC0863521F484E090D080E0DECF843638
:107EC00009F040C070D06FD0082F6DD080E0C81688
:107ED00080E7D80618F4F601B7BEE895C0E0D1E017
:107EE00062D089930C17E1F7F0E0CF16F0E7DF06D8
:107EF00018F0F601B7BEE89568D007B600FCFDCFD4
:107F0000A601A0E0B1E02C9130E011968C91119780
:107F100090E0982F8827822B932B1296FA010C0160
:107F200087BEE89511244E5F5F4FF1E0A038BF0790
:107F300051F7F601A7BEE89507B600FCFDCF97BE46
:107F4000E89526C08437B1F42ED02DD0F82E2BD052
:107F50003CD0F601EF2C8F010F5F1F4F84911BD097
:107F6000EA94F801C1F70894C11CD11CFA94CF0C13
:107F7000D11C0EC0853739F428D08EE10CD085E9AC
:107F80000AD08FE07ACF813511F488E018D01DD067
:107F900080E101D065CF982F8091C00085FFFCCF94
:107FA0009093C60008958091C00087FFFCCF809118
:107FB000C00084FD01C0A8958091C6000895E0E648
:107FC000F0E098E1908380830895EDDF803219F02E
:107FD00088E0F5DFFFCF84E1DECF1F93182FE3DFCA
:107FE0001150E9F7F2DF1F91089580E0E8DFEE27F6
:047FF000FF270994CA
:027FFE00040479
:0400000300007E007B
:00000001FF
